:1000000036C0000050C000000C944E084CC00000E8
:100010004AC0000048C0000046C0000044C00000C4
:1000200042C0000040C000003EC000003CC00000D4
:100030003AC0000038C0000036C0000034C00000E4
:1000400032C0000030C000002EC000002CC00000F4
:100050002AC00000E900E600E300E1000201F2002E
:10006000EF00EC00FD00FA00F700F500000111249C
:100070001FBECFE5D4E0DEBFCDBF13E0A0E6B0E009
:10008000EAEEFFE202C005900D92A830B107D9F761
:1000900023E0A8E0B3E001C01D92A639B207E1F762
:1000A0001BD70C94F317ACCFCF93DF93CDB7DEB74C
:1000B00086E290E026E230E0F90120812760FC0131
:1000C000208387E290E027E230E0F901208120647C
:1000D000FC01208386E290E026E230E0F9012081F5
:1000E0002068FC0120830000DF91CF910895CF9319
:1000F000DF931F92CDB7DEB7898387E290E027E2D6
:1001000030E0F9012081227EFC01208387E290E02B
:1001100027E230E0F90130812981232BFC01208383
:1001200086E290E026E230E0F90120812064FC01C3
:100130002083000086E290E0FC018081882F90E01F
:1001400080749927892BB1F784E290E0FC018081CB
:1001500091810F90DF91CF910895CF93DF93CDB729
:10016000DEB78BE590E02BE530E0F90120812068D7
:10017000FC01208385E590E025E530E0F901208150
:100180002C60FC0120830000DF91CF910895CF9374
:10019000DF93CDB7DEB780910A0390910B03092E50
:1001A000000CAA0BBB0B40E050E02CE030E0841BBD
:1001B000950B2817390730F1865D9F4FFC010C9491
:1001C000CA1743D323C00E94E21020C00E947E11B0
:1001D0001DC00E947C121AC00E94670A17C00E94AC
:1001E0001F0B14C00E94D80B11C014D00FC00E9466
:1001F000940C0CC00E94041409C00E94851306C010
:10020000C3D604C086D280E690E059D50000DF91C5
:10021000CF910895CF93DF93CDB7DEB76C970FB62C
:10022000F894DEBF0FBECDBF74D291D7D2D70E9453
:10023000350907D13AD16CD18EE690E040D5FBD29A
:100240008CE093E03CD580E090E8ABE3B5E48983B3
:100250009A83AB83BC8320E030E04AEF54E46981A9
:100260007A818B819C810E945417DC01CB018B8B9E
:100270009C8BAD8BBE8B20E030E040E85FE36B8968
:100280007C898D899E890E94011688232CF481E047
:1002900090E0988F8F8B3FC020E03FEF4FE757E40F
:1002A0006B897C898D899E890E94501718164CF5A0
:1002B00020E030E040E251E469817A818B819C81C9
:1002C0000E945417DC01CB01BC01CD010E947216C3
:1002D000DC01CB01988F8F8B0FC088EC90E09A8F58
:1002E000898F898D9A8D0197F1F79A8F898F8F89E0
:1002F000988D0197988F8F8B8F89988D892B69F7AF
:1003000014C06B897C898D899E890E947216DC01DC
:10031000CB01988F8F8B8F89988D9C8F8B8F8B8D36
:100320009C8D0197F1F79C8F8B8FF3D183E790E041
:10033000C6D481D280E293E0C2D480E090E8ABE3FF
:10034000B5E48D839E83AF83B88720E030E04AEF29
:1003500054E46D817E818F8198850E945417DC0161
:10036000CB0189879A87AB87BC8720E030E040E8E3
:100370005FE369857A858B859C850E9401168823B9
:100380002CF481E090E09E878D873FC020E03FEF16
:100390004FE757E469857A858B859C850E945017C5
:1003A00018164CF520E030E040E251E46D817E818A
:1003B0008F8198850E945417DC01CB01BC01CD01CF
:1003C0000E947216DC01CB019E878D870FC088ECDE
:1003D00090E0988B8F878F8598890197F1F7988B9C
:1003E0008F878D859E8501979E878D878D859E85BC
:1003F000892B69F714C069857A858B859C850E9455
:100400007216DC01CB019E878D878D859E859A8B28
:10041000898B89899A890197F1F79A8B898B79D190
:100420008BE790E04CD407D280E593E048D40000FD
:100430006C960FB6F894DEBF0FBECDBFDF91CF91A3
:100440000895CF93DF93CDB7DEB7809148039091A5
:1004500049030A974CF444E150E063E870E08CE013
:1004600093E00E94E4171EC08091480390914903D5
:100470000A9784F08091660390916703813A9F40C8
:100480004CF044E150E06AE870E08CE093E00E94B8
:10049000E41708C044E150E062E970E08CE093E0CA
:1004A0000E94E417DF91CF910895CF93DF93CDB7EA
:1004B000DEB780914803909149030F974CF444E1D3
:1004C00050E066E970E080E293E00E94E4171DC00E
:1004D00080914803909149030F977CF080916403C9
:1004E00090916503C3974CF044E150E06DE970E0F2
:1004F00080E293E00E94E41708C044E150E065EA1E
:1005000070E080E293E00E94E417DF91CF910895BC
:10051000CF93DF93CDB7DEB7809148039091490325
:100520000A9784F08091660390916703813A9F4017
:100530004CF044E150E06EEA70E080E593E00E9408
:10054000E41708C044E150E065EB70E080E593E01B
:100550000E94E417DF91CF910895CF93DF93CDB739
:10056000DEB785E390E025E330E0F901308120E853
:100570002327FC0120830000DF91CF910895CF93C2
:10058000DF93CDB7DEB785E390E025E330E0F901F6
:1005900020812F77FC0120830000DF91CF91089507
:1005A000CF93DF93CDB7DEB72F970FB6F894DEBFAA
:1005B0000FBECDBF8F8780E090E0A8ECB2E48983C6
:1005C0009A83AB83BC8320E030E04AEF54E4698136
:1005D0007A818B819C810E945417DC01CB018D8331
:1005E0009E83AF83B88720E030E040E85FE36D8111
:1005F0007E818F8198850E94011688232CF481E0EA
:1006000090E09A8789873FC020E03FEF4FE757E4AB
:100610006D817E818F8198850E94501718164CF548
:1006200020E030E040E251E469817A818B819C8155
:100630000E945417DC01CB01BC01CD010E9472164F
:10064000DC01CB019A8789870FC088EC90E09C87FA
:100650008B878B859C850197F1F79C878B87898594
:100660009A8501979A87898789859A85892B69F761
:1006700014C06D817E818F8198850E947216DC0185
:10068000CB019A87898789859A859E878D878D85F5
:100690009E850197F1F79E878D8788E390E02F85EF
:1006A000FC01208382E390E022E330E0F901208125
:1006B0002061FC01208382E390E022E330E0F90135
:1006C00020812E7FFC01208382E390E022E330E052
:1006D000F90120812D7FFC01208382E390E022E359
:1006E00030E0F90120812F7EFC01208382E390E03D
:1006F00022E330E0F90120812061FC012083000029
:100700002F960FB6F894DEBF0FBECDBFDF91CF910D
:100710000895CF93DF93CDB7DEB72E970FB6F89439
:10072000DEBF0FBECDBF81E03BDF80E090E0A0E206
:10073000B1E489839A83AB83BC8320E030E04AEF45
:1007400054E469817A818B819C810E945417DC0179
:10075000CB018D839E83AF83B88720E030E040E8F3
:100760005FE36D817E818F8198850E9401168823C9
:100770002CF481E090E09A8789873FC020E03FEF2A
:100780004FE757E46D817E818F8198850E945017D5
:1007900018164CF520E030E040E251E469817A819E
:1007A0008B819C810E945417DC01CB01BC01CD01DF
:1007B0000E947216DC01CB019A8789870FC088ECF2
:1007C00090E09C878B878B859C850197F1F79C87B0
:1007D0008B8789859A8501979A87898789859A85E4
:1007E000892B69F714C06D817E818F8198850E9465
:1007F0007216DC01CB019A87898789859A859E8745
:100800008D878D859E850197F1F79E878D870000E6
:100810002E960FB6F894DEBF0FBECDBFDF91CF91FD
:100820000895CF93DF93CDB7DEB780E8B9DE00003F
:10083000DF91CF910895CF93DF93CDB7DEB780ECF2
:10084000AFDE0000DF91CF910895CF93DF93CDB756
:10085000DEB76C970FB6F894DEBF0FBECDBF8CE34A
:100860009FDE8FE09DDE80E090E0A0E2B1E489832E
:100870009A83AB83BC8320E030E04AEF54E4698183
:100880007A818B819C810E945417DC01CB018B8B78
:100890009C8BAD8BBE8B20E030E040E85FE36B8942
:1008A0007C898D899E890E94011688232CF481E021
:1008B00090E0988F8F8B3FC020E03FEF4FE757E4E9
:1008C0006B897C898D899E890E94501718164CF57A
:1008D00020E030E040E251E469817A818B819C81A3
:1008E0000E945417DC01CB01BC01CD010E9472169D
:1008F000DC01CB01988F8F8B0FC088EC90E09A8F32
:10090000898F898D9A8D0197F1F79A8F898F8F89B9
:10091000988D0197988F8F8B8F89988D892B69F788
:1009200014C06B897C898D899E890E947216DC01B6
:10093000CB01988F8F8B8F89988D9C8F8B8F8B8D10
:100940009C8D0197F1F79C8F8B8FE3DE80E090E028
:10095000A0E2B1E48D839E83AF83B88720E030E0CE
:100960004AEF54E46D817E818F8198850E945417EF
:10097000DC01CB0189879A87AB87BC8720E030E018
:1009800040E85FE369857A858B859C850E94011626
:1009900088232CF481E090E09E878D873FC020E083
:1009A0003FEF4FE757E469857A858B859C850E94E8
:1009B000501718164CF520E030E040E251E46D810C
:1009C0007E818F8198850E945417DC01CB01BC0188
:1009D000CD010E947216DC01CB019E878D870FC06E
:1009E00088EC90E0988B8F878F8598890197F1F735
:1009F000988B8F878D859E8501979E878D878D85A6
:100A00009E85892B69F714C069857A858B859C85BD
:100A10000E947216DC01CB019E878D878D859E8595
:100A20009A8B898B89899A890197F1F79A8B898B9F
:100A30008BEB90E044D1FFDE8CEC90E040D10000E5
:100A40006C960FB6F894DEBF0FBECDBFDF91CF918D
:100A50000895CF93DF93CDB7DEB7A1970FB6F89483
:100A6000DEBF0FBECDBF89A380E090E0A8ECB2E46A
:100A700089839A83AB83BC832BEA3AEA4AE250E447
:100A800069817A818B819C810E945417DC01CB01A2
:100A90008D839E83AF83B88789819A81AB81BC8126
:100AA0009C01AD01BC01CD010E949D15DC01CB0173
:100AB00089879A87AB87BC8720E030E040E85FE316
:100AC0006D817E818F8198850E94011688231CF498
:100AD00081E08D87B2C020E03FEF4FE757E46985A2
:100AE0007A858B859C850E94501718160CF07BC068
:100AF00020E030E04AE754E469817A818B819C816F
:100B00000E940516DC01CB018E879F87A88BB98BCD
:100B100020E030E04AEF54E46E857F85888999892A
:100B20000E945417DC01CB018A8B9B8BAC8BBD8B55
:100B300020E030E040E85FE36A897B898C899D8909
:100B40000E94011688232CF481E090E09F8B8E8B0D
:100B50003FC020E03FEF4FE757E46A897B898C89EB
:100B60009D890E94501718164CF520E030E040E2B5
:100B700051E46E857F85888999890E945417DC012C
:100B8000CB01BC01CD010E947216DC01CB019F8B11
:100B90008E8B0FC088EC90E0998F888F888D998D0F
:100BA0000197F1F7998F888F8E899F8901979F8B85
:100BB0008E8B8E899F89892B69F73FC06A897B89D3
:100BC0008C899D890E947216DC01CB019F8B8E8BD4
:100BD0008E899F899B8F8A8F8A8D9B8D0197F1F7D4
:100BE0009B8F8A8F2AC020E030E04FE753E46D816D
:100BF0007E818F8198850E9450171816ACF4698504
:100C00007A858B859C850E947216DC01CB019D8FB5
:100C10008C8F8C8D9D8D9F8F8E8F8E8D9F8D01974C
:100C2000F1F79F8F8E8F0FC06D817E818F819885A8
:100C30000E947216DC01CB018D878D8588A388A167
:100C40008A95F1F788A388E390E029A1FC0120832D
:100C500082E390E022E330E0F90120812061FC0191
:100C6000208382E390E022E330E0F90120812160DB
:100C7000FC01208382E390E022E330E0F90120814F
:100C80002D7FFC01208382E390E022E330E0F90134
:100C900020812F7EFC01208382E390E022E330E07C
:100CA000F90120812061FC0120830000A1960FB68C
:100CB000F894DEBF0FBECDBFDF91CF910895CF93E3
:100CC000DF9300D01F92CDB7DEB79B838A83198252
:100CD0000DC08981882F90E02A813B81820F931F6C
:100CE000FC018081B6DE89818F5F89838981882FAD
:100CF00090E02A813B81820F931FFC018081882331
:100D000041F700000F900F900F90DF91CF91089561
:100D1000CF93DF9300D0CDB7DEB79A8389838981E3
:100D20009A810996439750F489819A812AE030E0AC
:100D3000B9010E94B717805D8CDE11C089819A814C
:100D40002AE030E0B9010E94B717CB01E1DF8981C9
:100D50009A812AE030E0B9010E94B717D9DF00007C
:100D60000F900F90DF91CF910895CF93DF93CDB780
:100D7000DEB780E290E020E2FC0120830000DF91FA
:100D8000CF910895CF93DF9300D0CDB7DEB78A839C
:100D900086E590E0FC01108286E590E024EAFC0103
:100DA0002083000086E590E0FC0180818823D4F751
:100DB00081E290E0FC018081882F90E0887F992774
:100DC000089711F081E020C083E290E02A81FC01C5
:100DD000208386E590E024E8FC012083000086E57E
:100DE00090E0FC0180818823D4F781E290E0FC014F
:100DF0008081887F89838981883129F08981803445
:100E000011F081E001C080E00F900F90DF91CF9151
:100E10000895CF93DF931F92CDB7DEB7898383E226
:100E200090E02981FC01208386E590E024E8FC0124
:100E30002083000086E590E0FC0180818823D4F7C0
:100E400081E290E0FC018081882F90E0887F9927E3
:100E5000889711F081E001C080E00F90DF91CF9181
:100E60000895CF93DF93CDB7DEB786E590E024EC0D
:100E7000FC012083000086E590E0FC01808188234E
:100E8000D4F783E290E0FC018081DF91CF91089557
:100E9000CF93DF93CDB7DEB786E590E024E8FC0181
:100EA0002083000086E590E0FC0180818823D4F750
:100EB00083E290E0FC018081DF91CF910895CF9390
:100EC000DF93CDB7DEB786E590E024E9FC0120830F
:100ED0000000DF91CF910895CF93DF93CDB7DEB7B8
:100EE00015D03BD94CDB15DCDFD80E94AC1003D108
:100EF0003CDF78948091080390910903892BD1F30A
:100F0000109209031092080342D9F4CFCF93DF93D4
:100F1000CDB7DEB78AE390E0FC01108287E390E072
:100F20002FEFFC01208384E390E024E330E0F9011B
:100F300020812068FC01208381E390E021E330E000
:100F4000F90120812061FC01208381E390E021E30D
:100F500030E0F90120812160FC01208381E390E0F1
:100F600021E330E0F90120812260FC01208381E34C
:100F700090E021E330E0F9012081277FFC0120830C
:100F80000000DF91CF910895CF93DF93CDB7DEB707
:100F90008BE290E090937B0380937A0381E090E072
:100FA000909379038093780382E090E09093870395
:100FB0008093860383E090E090938B0380938A0371
:100FC00084E090E0909385038093840385E090E033
:100FD00090939503809394038FEF9FEF90938903F1
:100FE000809388031092490310924803109267037C
:100FF00010926603109265031092640310924503E9
:101000001092440310924B0310924A0310926D0306
:1010100010926C03109243031092420310923B0310
:1010200010923A0310924D0310924C038CE99FEFFB
:1010300090936B0380936A0384E690E0909335036A
:10104000809334038CE99FEF9093370380933603AA
:1010500084E690E090934F0380934E0380EF98EDE9
:10106000909347038093460380E197E29093410376
:1010700080934003109239031092380310923F037B
:1010800010923E03109269031092680342DB8AEDCE
:1010900090E015DE0000DF91CF9108951F920F922E
:1010A00000905F000F9211248F939F93EF93FF9313
:1010B000CF93DF93CDB7DEB789E390E0FC01808169
:1010C00082958F70882F90E090930B0380930A0392
:1010D00081E090E090930903809308030000DF9182
:1010E000CF91FF91EF919F918F910F9000925F00B0
:1010F0000F901F901895CF93DF93CDB7DEB78CE993
:101100009FEF90936B0380936A0384E690E0909343
:101110003503809334038CE99FEF909337038093DA
:10112000360384E690E090934F0380934E0380EF64
:1011300098ED909347038093460380E197E2909364
:101140004103809340030000DF91CF910895CF9336
:10115000DF93CDB7DEB782E00E947700092E000C46
:10116000AA0BBB0BBC01CD010E94A016DC01CB0178
:1011700026EF38E24CE950E4BC01CD010E9454173F
:10118000DC01CB012DEC3CEC4CEC5DE3BC01CD0172
:101190000E945417DC01CB0123E333E948E853E410
:1011A000BC01CD010E949C15DC01CB01BC01CD012D
:1011B0000E946D16DC01CB01909349038093480394
:1011C000809148039091490392D00000DF91CF9124
:1011D0000895CF93DF93CDB7DEB780E00E9477000C
:1011E000092E000CAA0BBB0BBC01CD010E94A0165E
:1011F000DC01CB0126EF38E24CE950E4BC01CD0123
:101200000E945417DC01CB012DEC3CEC4CEC5DE36F
:10121000BC01CD010E945417DC01CB0120E030E07D
:1012200040EA52E4BC01CD010E949C15DC01CB01D7
:1012300020E030E040E450E4BC01CD010E940516FE
:10124000DC01CB01BC01CD010E946D16DC01CB019C
:101250009093650380936403809164039091650388
:1012600096D00000DF91CF910895CF93DF93CDB753
:10127000DEB781E00E947700092E000CAA0BBB0BA1
:10128000BC01CD010E94A016DC01CB0126EF38E2A3
:101290004CE950E4BC01CD010E945417DC01CB01A4
:1012A0002FE632E143E85AE3BC01CD010E94541716
:1012B000DC01CB0126E134EC44E554E4BC01CD0172
:1012C0000E945417DC01CB01BC01CD010E946D16B8
:1012D000DC01CB01909367038093660380916603E2
:1012E00090916703A4D00000DF91CF910895CF9330
:1012F000DF9300D0CDB7DEB79A8389832091440372
:101300003091450389819A81820F931F9093450301
:101310008093440380913803909139030196909310
:1013200039038093380380914403909145032091C1
:10133000380330913903B9010E94B717CB0190935C
:101340004B0380934A0380913403909135032981A4
:101350003A812817390734F489819A8190933503AB
:101360008093340380916A0390916B0329813A81C1
:101370008217930734F489819A8190936B03809349
:101380006A0300000F900F90DF91CF910895CF93E3
:10139000DF9300D0CDB7DEB79A83898320916C03A9
:1013A00030916D0389819A81820F931F90936D0311
:1013B00080936C0380913E0390913F03019690933C
:1013C0003F0380933E0380916C0390916D032091C5
:1013D0003E0330913F03B9010E94B717CB019093B0
:1013E00043038093420380914E0390914F032981E0
:1013F0003A812817390734F489819A8190934F03F1
:1014000080934E03809136039091370329813A816E
:101410008217930734F489819A81909337038093DC
:10142000360300000F900F90DF91CF910895CF9376
:10143000DF9300D0CDB7DEB79A83898320913A033A
:1014400030913B0389819A81820F931F90933B03D4
:1014500080933A0380916803909169030196909379
:1014600069038093680380913A0390913B03209134
:10147000680330916903B9010E94B717CB019093BB
:101480004D0380934C038091400390914103298147
:101490003A812817390734F489819A81909341035E
:1014A00080934003809146039091470329813A81BC
:1014B0008217930734F489819A819093470380932C
:1014C000460300000F900F90DF91CF910895CF93C6
:1014D000DF93CDB7DEB72E970FB6F894DEBF0FBE01
:1014E000CDBF35DE16D988EE90E0E9DB8091480368
:1014F000909149030DDC86EF90E0E1DB9CD988EF09
:1015000090E0DDDB80914A0390914B0301DC86EF94
:1015100090E0D5DB80E090E8ABE3B5E489839A8383
:10152000AB83BC8320E030E04AEF54E469817A81E8
:101530008B819C810E945417DC01CB018D839E839B
:10154000AF83B88720E030E040E85FE36D817E81C3
:101550008F8198850E94011688232CF481E090E009
:101560009A8789873FC020E03FEF4FE757E46D81BE
:101570007E818F8198850E94501718164CF520E0C7
:1015800030E040E251E469817A818B819C810E9444
:101590005417DC01CB01BC01CD010E947216DC01A5
:1015A000CB019A8789870FC088EC90E09C878B8756
:1015B0008B859C850197F1F79C878B8789859A8518
:1015C00001979A87898789859A85892B69F714C03D
:1015D0006D817E818F8198850E947216DC01CB011E
:1015E0009A87898789859A859E878D878D859E852F
:1015F0000197F1F79E878D878CD813D982E091E00F
:101600005EDB80916A0390916B0382DB86EF90E052
:1016100056DB11D988E091E052DB80913403909140
:10162000350376DB86EF90E04ADB00002E960FB69E
:10163000F894DEBF0FBECDBFDF91CF910895CF9359
:10164000DF93CDB7DEB72E970FB6F894DEBF0FBE8F
:10165000CDBFBFDD5ED88EE091E031DB80916403C9
:101660009091650355DB89E191E029DBE4D888EFAF
:1016700090E025DB809142039091430349DB89E1AF
:1016800091E01DDB80E090E8ABE3B5E489839A83C9
:10169000AB83BC8320E030E04AEF54E469817A8177
:1016A0008B819C810E945417DC01CB018D839E832A
:1016B000AF83B88720E030E040E85FE36D817E8152
:1016C0008F8198850E94011688232CF481E090E098
:1016D0009A8789873FC020E03FEF4FE757E46D814D
:1016E0007E818F8198850E94501718164CF520E056
:1016F00030E040E251E469817A818B819C810E94D3
:101700005417DC01CB01BC01CD010E947216DC0133
:10171000CB019A8789870FC088EC90E09C878B87E4
:101720008B859C850197F1F79C878B8789859A85A6
:1017300001979A87898789859A85892B69F714C0CB
:101740006D817E818F8198850E947216DC01CB01AC
:101750009A87898789859A859E878D878D859E85BD
:101760000197F1F79E878D870E9489035AD882E0FE
:1017700091E0A5DA8091360390913703C9DA89E1C7
:1017800091E09DDA58D888E091E099DA80914E0393
:1017900090914F03BDDA89E191E091DA00002E9635
:1017A0000FB6F894DEBF0FBECDBFDF91CF91089585
:1017B000CF93DF93CDB7DEB72E970FB6F894DEBF89
:1017C0000FBECDBF52DD0E9489038BE191E077DA35
:1017D00080916603909167039BDA83E291E06FDA70
:1017E0002AD888EF90E06BDA80914C0390914D03FA
:1017F0008FDA83E291E063DA80E090E8ABE3B5E46E
:1018000089839A83AB83BC8320E030E04AEF54E4C1
:1018100069817A818B819C810E945417DC01CB0104
:101820008D839E83AF83B88720E030E040E85FE39C
:101830006D817E818F8198850E94011688232CF40A
:1018400081E090E09A8789873FC020E03FEF4FE733
:1018500057E46D817E818F8198850E9450171816FC
:101860004CF520E030E040E251E469817A818B81DF
:101870009C810E945417DC01CB01BC01CD010E9468
:101880007216DC01CB019A8789870FC088EC90E043
:101890009C878B878B859C850197F1F79C878B872D
:1018A00089859A8501979A87898789859A85892B61
:1018B00069F714C06D817E818F8198850E947216B0
:1018C000DC01CB019A87898789859A859E878D87D8
:1018D0008D859E850197F1F79E878D870E948903EC
:1018E0000E94110482E091E0EAD980914603909130
:1018F00047030EDA83E291E0E2D90E941B0488E0FC
:1019000091E0DDD9809140039091410301DA83E2B7
:1019100091E0D5D900002E960FB6F894DEBF0FBE29
:10192000CDBFDF91CF9108950F931F93CF93DF9396
:10193000CDB7DEB7C455D1090FB6F894DEBF0FBEE0
:10194000CDBF10923D0310923C0301DC42DC8DDCE4
:101950000E948903809148039091490399230CF0D8
:1019600086C00E94AD0287E291E0A9D90E941B04C3
:1019700082E391E0A4D980E090E8ABE3B5E48D8BFD
:101980009E8BAF8BB88F20E030E04AEF54E46D8936
:101990007E898F89988D0E945417DC01CB01898F35
:1019A0009A8FAB8FBC8F20E030E040E85FE3698D19
:1019B0007A8D8B8D9C8D0E94011688232CF481E0FA
:1019C00090E09E8F8D8F3FC020E03FEF4FE757E4C0
:1019D000698D7A8D8B8D9C8D0E94501718164CF551
:1019E00020E030E040E251E46D897E898F89988D56
:1019F0000E945417DC01CB01BC01CD010E9472167C
:101A0000DC01CB019E8F8D8F0FC088EC90E098A3F6
:101A10008F8F8F8D98A10197F1F798A38F8F8D8D60
:101A20009E8D01979E8F8D8F8D8D9E8D892B69F751
:101A300014C0698D7A8D8B8D9C8D0E947216DC018D
:101A4000CB019E8F8D8F8D8D9E8D9AA389A389A1A9
:101A50009AA10197F1F79AA389A30E9489030E9492
:101A6000BF0281E090E090933D0380933C0380911E
:101A70004803909149034F970CF486C00E94AD0231
:101A80008BE391E01CD90E941B0484E491E017D9F8
:101A900080E090E8ABE3B5E489839A83AB83BC83B1
:101AA00020E030E04AEF54E469817A818B819C81A7
:101AB0000E945417DC01CB018BA39CA3ADA3BEA352
:101AC00020E030E040E85FE36BA17CA18DA19EA106
:101AD0000E94011688232CF481E090E098A78FA340
:101AE0003FC020E03FEF4FE757E46BA17CA18DA101
:101AF0009EA10E94501718164CF520E030E040E2FD
:101B000051E469817A818B819C810E945417DC01A8
:101B1000CB01BC01CD010E947216DC01CB0198A75C
:101B20008FA30FC088EC90E09AA789A789A59AA5F2
:101B30000197F1F79AA789A78FA198A5019798A770
:101B40008FA38FA198A5892B69F714C06BA17CA1E5
:101B50008DA19EA10E947216DC01CB0198A78FA3D4
:101B60008FA198A59CA78BA78BA59CA50197F1F7A2
:101B70009CA78BA70E9489030E94BF0281E090E08E
:101B800090933D0380933C0380916603909167039B
:101B9000893690410CF486C00E94AD0287E291E044
:101BA0008ED80E941B048FE491E089D880E090E8F1
:101BB000ABE3B5E48D839E83AF83B88720E030E04C
:101BC0004AEF54E46D817E818F8198850E9454177D
:101BD000DC01CB018DA79EA7AFA7B8AB20E030E01A
:101BE00040E85FE36DA57EA58FA598A90E94011628
:101BF00088232CF481E090E09AAB89AB3FC020E0D1
:101C00003FEF4FE757E46DA57EA58FA598A90E94E9
:101C1000501718164CF520E030E040E251E46D8199
:101C20007E818F8198850E945417DC01CB01BC0115
:101C3000CD010E947216DC01CB019AAB89AB0FC0BB
:101C400088EC90E09CAB8BAB8BA99CA90197F1F73A
:101C50009CAB8BAB89A99AA901979AAB89AB89A94F
:101C60009AA9892B69F714C06DA57EA58FA598A99F
:101C70000E947216DC01CB019AAB89AB89A99AA9A3
:101C80009EAB8DAB8DA99EA90197F1F79EAB8DAB55
:101C90000E9489030E94BF0281E090E090933D037F
:101CA00080933C038091660390916703803A9F4044
:101CB0000CF08EC00E94AD028AE591E000D80E942F
:101CC0001B0484E691E00E945F0680E090E8ABE3AD
:101CD000B5E489879A87AB87BC8720E030E04AEF7C
:101CE00054E469857A858B859C850E945417DC01B4
:101CF000CB018FAB98AFA9AFBAAF20E030E040E89E
:101D00005FE36FA978AD89AD9AAD7BD788232CF4BA
:101D100081E090E09CAF8BAF3DC020E03FEF4FE70C
:101D200057E46FA978AD89AD9AAD0E945017181687
:101D300044F520E030E040E251E469857A858B8506
:101D40009C850E945417DC01CB01BC01CD01CAD790
:101D5000DC01CB019CAF8BAF0FC088EC90E09EAF55
:101D60008DAF8DAD9EAD0197F1F79EAF8DAF8BAD71
:101D70009CAD01979CAF8BAF8BAD9CAD892B69F768
:101D80001DC06FA978AD89AD9AADACD7DC01CB0190
:101D90009CAF8BAF2BAD3CADCE01CF96FC01318318
:101DA0002083CE01CF96FC01808191810197F1F7CC
:101DB0009E01215C3F4FF901918380830E9489033A
:101DC0000E94BF0281E090E090933D0380933C032A
:101DD000809164039091650344970CF0CBC00E94FE
:101DE000AD028CE691E00E945F060E941B0485E72D
:101DF00091E00E945F0680E090E8ABE3B5E48D8758
:101E00009E87AF87B88B8E010F5B1F4F20E030E0BD
:101E10004AEF54E46D857E858F8598890E9454171A
:101E2000DC01CB01F80180839183A283B383CE01CF
:101E30008F5B9F4F20E030E040E85FE3FC01608172
:101E4000718182819381DDD688234CF4CE018B5B36
:101E50009F4F21E030E0FC013183208367C0CE0139
:101E60008F5B9F4F20E03FEF4FE757E4FC0160811D
:101E70007181828193810E94501718160CF045C021
:101E800020E030E040E251E46D857E858F859889C1
:101E90000E945417DC01CB018E010B5B1F4FBC016C
:101EA000CD0120D7DC01CB01F8019183808324C0D0
:101EB000CE01895B9F4F28EC30E0FC013183208309
:101EC000CE01895B9F4FFC01808191810197F1F7E1
:101ED0009E01295B3F4FF90191838083CE018B5B8B
:101EE0009F4F9E012B5B3F4FF90120813181215093
:101EF0003109FC0131832083CE018B5B9F4FFC01B4
:101F000080819181892BA1F62BC08E010B5B1F4F25
:101F1000CE018F5B9F4FFC01608171818281938133
:101F2000E1D6DC01CB01F80191838083CE01875B90
:101F30009F4F9E012B5B3F4FF90120813181FC01B6
:101F400031832083CE01875B9F4FFC01808191818B
:101F50000197F1F79E01275B3F4FF9019183808341
:101F60000E9489030E94BF0281E090E090933D03AC
:101F700080933C03809164039091650387349105BD
:101F80000CF4C8C00E94AD028AE791E00E945F068F
:101F90000E941B0483E891E00E945F0680E090E8C5
:101FA000ABE3B5E4898B9A8BAB8BBC8B8E01055B65
:101FB0001F4F20E030E04AEF54E469897A898B8929
:101FC0009C8972D7DC01CB01F80180839183A283C5
:101FD000B383CE01855B9F4F20E030E040E85FE3B4
:101FE000FC0160817181828193810BD688234CF43E
:101FF000CE01815B9F4F21E030E0FC0131832083E3
:1020000065C0CE01855B9F4F20E03FEF4FE757E46F
:10201000FC01608171818281938142D718160CF096
:1020200044C020E030E040E251E469897A898B893C
:102030009C893AD7DC01CB018E01015B1F4FBC01AB
:10204000CD0150D6DC01CB01F8019183808324C0FF
:10205000CE018F5A9F4F28EC30E0FC013183208362
:10206000CE018F5A9F4FFC01808191810197F1F73A
:102070009E012F5A3F4FF90191838083CE01815BEE
:102080009F4F9E01215B3F4FF901208131812150FB
:102090003109FC0131832083CE01815B9F4FFC011C
:1020A00080819181892BA1F62BC08E01015B1F4F8E
:1020B000CE01855B9F4FFC0160817181828193819C
:1020C00011D6DC01CB01F80191838083CE018D5ABA
:1020D0009F4F9E01215B3F4FF90120813181FC011F
:1020E00031832083CE018D5A9F4FFC0180819181E5
:1020F0000197F1F79E012D5A3F4FF901918380839B
:102100000E9489030E94BF0281E090E090933D030A
:1021100080933C0380913C0390913D03892B29F4EB
:102120008BE891E00E945F060AC088E991E00E9476
:102130005F060E941B0485EA91E00E945F06000092
:10214000CC5ADF4F0FB6F894DEBF0FBECDBFDF9184
:10215000CF911F910F910895CF93DF93CDB7DEB745
:102160008FEF9FEF90938903809388038BE290E039
:1021700090937B0380937A0381E090E090937903BE
:102180008093780382E090E09093870380938603A6
:1021900083E090E090938B0380938A0384E090E047
:1021A000909385038093840385E090E0909395035A
:1021B0008093940310928F0310928E030000DF919E
:1021C000CF910895CF93DF93CDB7DEB70E948903F7
:1021D000809188039091890301969093890380935D
:1021E0008803809188039091890382309105B9F129
:1021F000833091052CF4009771F00197F9F073C0CA
:102200008430910509F44DC084309105CCF10597D7
:1022100009F458C068C080EB91E00E945F060E94FC
:102220001B048EEB91E00E945F0680917A039091EF
:102230007B038053984F0E9488065CC088EC91E035
:102240000E945F060E941B048EEB91E00E945F06D5
:1022500080917803909179030E9488064BC087EDA6
:1022600091E00E945F060E941B048EEB91E00E94A9
:102270005F0680918603909187030E9488063AC08A
:1022800084EE91E00E945F060E941B048EEB91E0B9
:102290000E945F0680918A0390918B030E948806BA
:1022A00029C082EF91E00E945F060E941B048EEB22
:1022B00091E00E945F0680918403909185030E94C3
:1022C000880618C082E092E00E945F060E941B040C
:1022D0008EEB91E00E945F068091940390919503AC
:1022E0000E94880607C08FEF9FEF90938903809329
:1022F000880368DF0000DF91CF910895CF93DF93CB
:10230000CDB7DEB70E94890380918803909189033D
:102310008230910509F455C0833091052CF4009763
:1023200079F0019749F1E1C08430910509F493C037
:10233000843091050CF46AC0059709F4B1C0D5C08A
:1023400082E192E00E945F0680917A0390917B0384
:10235000019690937B0380937A030E941B048EEB7B
:1023600091E00E945F0680917A0390917B038053F5
:10237000984F0E948806BDC08091780390917903A0
:102380000C9729F481E292E00E945F06B2C08EE2CF
:1023900092E00E945F068091780390917903019604
:1023A00090937903809378030E941B048EEB91E055
:1023B0000E945F0680917803909179030E948806BD
:1023C00098C080918603909187034F9729F481E20A
:1023D00092E00E945F068DC08EE392E00E945F064D
:1023E0008091860390918703019690938703809351
:1023F00086030E941B048EEB91E00E945F06809191
:102400008603909187030E94880673C080918A0397
:1024100090918B03479729F481E292E00E945F0636
:1024200068C08CE492E00E945F0680918A039091DC
:102430008B03019690938B0380938A030E941B0465
:102440008EEB91E00E945F0680918A0390918B034E
:102450000E9488064EC08091840390918503CB979B
:1024600029F481E292E00E945F0643C08BE592E08E
:102470000E945F068091840390918503019690935A
:102480008503809384030E941B048EEB91E00E94DD
:102490005F0680918403909185030E94880629C07D
:1024A0008091940390919503CB9729F481E292E077
:1024B0000E945F061EC08CE692E00E945F0680913B
:1024C00094039091950301969093950380939403C0
:1024D0000E941B048EEB91E00E945F0680919403A2
:1024E000909195030E94880604C08DE792E00E94B7
:1024F0005F06DF91CF910895CF93DF93CDB7DEB71D
:102500000E9489038091880390918903823091050C
:1025100009F460C0833091052CF4009779F001979D
:10252000A1F1ECC08430910509F49EC0843091057E
:102530000CF475C0059709F4BCC0E0C080917A0323
:1025400090917B03892B29F481E292E00E945F063F
:10255000D9C08EE892E00E945F0680917A03909144
:102560007B03019790937B0380937A030E941B0463
:102570008EEB91E00E945F0680917A0390917B033D
:102580008053984F0E948806BDC080917803909137
:102590007903019729F481E292E00E945F06B2C0BC
:1025A0008DE992E00E945F06809178039091790313
:1025B000019790937903809378030E941B048EEB1C
:1025C00091E00E945F0680917803909179030E94C8
:1025D000880698C08091860390918703019729F41B
:1025E00081E292E00E945F068DC08DEA92E00E9437
:1025F0005F068091860390918703019790938703EC
:10260000809386030E941B048EEB91E00E945F067C
:1026100080918603909187030E94880673C0809101
:102620008A0390918B03892B29F481E292E00E9426
:102630005F0668C08BEB92E00E945F0680918A0380
:1026400090918B03019790938B0380938A030E9450
:102650001B048EEB91E00E945F0680918A039091AB
:102660008B030E9488064EC080918403909185035D
:10267000892B29F481E292E00E945F0643C08AEC34
:1026800092E00E945F0680918403909185030197F8
:1026900090938503809384030E941B048EEB91E04A
:1026A0000E945F0680918403909185030E948806B2
:1026B00029C08091940390919503892B29F481E29C
:1026C00092E00E945F061EC08BED92E00E945F06C2
:1026D0008091940390919503019790939503809333
:1026E00094030E941B048EEB91E00E945F06809190
:1026F0009403909195030E94880604C08DE792E0B0
:102700000E945F06DF91CF910895CF93DF93CDB7FD
:10271000DEB780918E0390918F03892B29F48CEE84
:1027200092E00E945F066DC0E9D00E94890380910B
:102730006E0390916F038053984F0E9488068AEF32
:1027400092E00E945F0680918203909183030A9732
:1027500024F480E090E00E948806809182039091AA
:1027600083030E9488068AEF92E00E945F068091B0
:102770009003909191030A9724F480E090E00E94E6
:10278000880680919003909191030E9488060E9490
:102790001B0480917E0390917F030A9724F480E0CC
:1027A00090E00E94880680917E0390917F030E94B2
:1027B00088068CEF92E00E945F06809170039091F2
:1027C00071030A9724F480E090E00E9488068091CB
:1027D0007003909171030E9488068CEF92E00E9432
:1027E0005F0680917C0390917D030A9724F480E03A
:1027F00090E00E94880680917C0390917D030E9466
:102800008806DF91CF910895CF93DF93CDB7DEB7E0
:102810008EED0E94C20680E00E9409078091940319
:10282000909195033BD080680E94090780918403B2
:102830009091850333D00E94090780918A0390917B
:102840008B032CD00E94090784E00E940907809125
:1028500086039091870322D00E9409078091780314
:10286000909179031BD00E94090780917A0390917F
:102870007B0314D00E9409070E945F070E9489030E
:102880008EEF92E00E945F0681E090E090938F03CC
:1028900080938E030000DF91CF910895CF93DF9353
:1028A00000D000D000D0CDB7DEB79E838D838D8160
:1028B0009E812AE030E0B9015AD3CB019A83898303
:1028C0008D819E812AE030E0B90151D39C838B83B6
:1028D00089819A819C0122953295307F3227207F11
:1028E00032278B819C81822B932B26960FB6F894EE
:1028F000DEBF0FBECDBFDF91CF910895CF93DF93A1
:10290000CDB7DEB78EED0E94C20680E00E940907B7
:102910008FED0E94C2060E943107882F90E09093AD
:102920007703809376038091760390917703807785
:1029300099279595879595958795959587959595DB
:102940008795880F991F9C01220F331F220F331F79
:10295000280F391F80917603909177038F70992704
:10296000820F931F90937D0380937C030E94310715
:10297000882F90E09093810380938003809180035F
:10298000909181038077992795958795959587955F
:102990009595879595958795880F991F9C01220F8E
:1029A000331F220F331F280F391F8091800390910E
:1029B00081038F709927820F931F909371038093E7
:1029C00070030E943107882F90E0909375038093E5
:1029D0007403809174039091750380719927959584
:1029E0008795959587959595879595958795880F62
:1029F000991F9C01220F331F220F331F280F391FED
:102A000080917403909175038F709927820F931FA3
:102A100090937F0380937E038EED0E94C20684E034
:102A20000E9409078FED0E94C2060E943107882F7D
:102A300090E09093930380939203809192039091FE
:102A40009303807399279595879595958795959587
:102A5000879595958795880F991F9C01220F331FA5
:102A6000220F331F280F391F8091920390919303F7
:102A70008F709927820F931F9093910380939003F7
:102A80000E943107882F90E0909373038093720324
:102A90008091720390917303807199279595879522
:102AA000959587959595879595958795880F991F05
:102AB0009C01220F331F220F331F280F391F8091D3
:102AC0007203909173038F709927820F931F9093D5
:102AD0008303809382030E944807882F90E090939D
:102AE0008D0380938C0380918C0390918D03807F64
:102AF000992795958795959587959595879595951A
:102B00008795880F991F9C01220F331F220F331FB7
:102B1000280F391F80918C0390918D038F70992716
:102B2000820F931F90936F0380936E030E945F0741
:102B30000000DF91CF9108955058BB27AA270ED0EF
:102B400075C166D130F06BD120F031F49F3F11F4A4
:102B50001EF45BC10EF4E095E7FB51C1E92F77D17C
:102B600080F3BA17620773078407950718F071F4AA
:102B70009EF58FC10EF4E0950B2EBA2FA02D0B0100
:102B8000B90190010C01CA01A0011124FF27591BB2
:102B900099F0593F50F4503E68F11A16F040A22FB8
:102BA000232F342F4427585FF3CF46953795279529
:102BB000A795F0405395C9F77EF41F16BA0B620B28
:102BC000730B840BBAF09150A1F0FF0FBB1F661F6F
:102BD000771F881FC2F70EC0BA0F621F731F841FB2
:102BE00048F4879577956795B795F7959E3F08F0D8
:102BF000B3CF9395880F08F09927EE0F9795879597
:102C00000895D9D008F481E008950CD00FC107D100
:102C100040F0FED030F021F45F3F19F0F0C05111C8
:102C200039C1F3C014D198F39923C9F35523B1F3F3
:102C3000951B550BBB27AA2762177307840738F02B
:102C40009F5F5F4F220F331F441FAA1FA9F333D08A
:102C50000E2E3AF0E0E830D091505040E695001C3E
:102C6000CAF729D0FE2F27D0660F771F881FBB1FFA
:102C7000261737074807AB07B0E809F0BB0B802DD4
:102C8000BF01FF2793585F4F2AF09E3F510568F020
:102C9000B6C000C15F3FECF3983EDCF386957795B4
:102CA0006795B795F7959F5FC9F7880F911D969522
:102CB000879597F90895E1E0660F771F881FBB1F7E
:102CC000621773078407BA0720F0621B730B840B2B
:102CD000BA0BEE1F88F7E095089504D06894B111FF
:102CE000D9C00895BCD088F09F5790F0B92F99278C
:102CF000B751A0F0D1F0660F771F881F991F1AF007
:102D0000BA95C9F712C0B13081F0C3D0B1E00895CF
:102D1000C0C0672F782F8827B85F39F0B93FCCF350
:102D2000869577956795B395D9F73EF490958095FC
:102D3000709561957F4F8F4F9F4F0895E89409C01C
:102D400097FB3EF490958095709561957F4F8F4FDE
:102D50009F4F9923A9F0F92F96E9BB279395F695F4
:102D6000879577956795B795F111F8CFFAF4BB0F72
:102D700011F460FF1BC06F5F7F4F8F4F9F4F16C0D6
:102D8000882311F096E911C0772321F09EE8872F60
:102D9000762F05C0662371F096E8862F70E060E01C
:102DA0002AF09A95660F771F881FDAF7880F969595
:102DB000879597F90895990F0008550FAA0BE0E839
:102DC000FEEF16161706E807F907C0F012161306ED
:102DD000E407F50798F0621B730B840B950B39F42D
:102DE0000A2661F0232B242B252B21F408950A2693
:102DF00009F4A140A6958FEF811D811D089597F9D3
:102E00009F6780E870E060E008959FEF80EC089590
:102E100000240A94161617061806090608950024B9
:102E20000A9412161306140605060895092E039433
:102E3000000C11F4882352F0BB0F40F4BF2B11F4A7
:102E400060FF04C06F5F7F4F8F4F9F4F089557FD06
:102E50009058440F551F59F05F3F71F04795880F08
:102E600097FB991F61F09F3F79F08795089512169F
:102E700013061406551FF2CF4695F1DF08C016164B
:102E800017061806991FF1CF8695710561050894FC
:102E90000895E894BB2766277727CB0197F9089513
:102EA0008ADF08F48FEF08950BD0C0CFB1DF28F090
:102EB000B6DF18F0952309F0A2CFA7CF1124EACFEF
:102EC000C6DFA0F3959FD1F3950F50E0551F629F89
:102ED000F001729FBB27F00DB11D639FAA27F00D73
:102EE000B11DAA1F649F6627B00DA11D661F829F9A
:102EF0002227B00DA11D621F739FB00DA11D621F7F
:102F0000839FA00D611D221F749F3327A00D611D9B
:102F1000231F849F600D211D822F762F6A2F11247D
:102F20009F5750408AF0E1F088234AF0EE0FFF1FD0
:102F3000BB1F661F771F881F91505040A9F79E3F07
:102F4000510570F05CCFA6CF5F3FECF3983EDCF309
:102F5000869577956795B795F795E7959F5FC1F744
:102F6000FE2B880F911D9695879597F9089597FBED
:102F7000072E16F4009406D077FD08D011D007FC78
:102F800005D03EF4909581959F4F08957095619579
:102F90007F4F0895EE0FFF1F0590F491E02D0994E7
:102FA000AA1BBB1B51E107C0AA1FBB1FA617B7076F
:102FB00010F0A61BB70B881F991F5A95A9F780958B
:102FC0009095BC01CD010895FB01DC0141505040BA
:102FD00048F001900D920020C9F701C01D924150A8
:0A2FE0005040E0F70895F894FFCF89
:102FEA0057726F6E6720627574746F6E2100546F2A
:102FFA00703A004D6964646C653A00426F74746F8C
:10300A006D3A004265616E69650053756E204861CC
:10301A007400436170004A61636B657400542D73D8
:10302A006869727400436172646967616E0053680B
:10303A006F7274730050616E74730057656C636FBE
:10304A006D65212053656C656374200074696D6534
:10305A002C20706C65617365210044617461206382
:10306A006C6561726564210054656D706572617486
:10307A007572653A20004300417665726167653A68
:10308A0020004D61783A20004D696E3A200048755B
:10309A006D69646974793A200025004C696768741F
:1030AA003A20004C7578005761746368206F757414
:1030BA002000666F72206963652100546F6F206873
:1030CA006F742000746F2068616E646C65210066FD
:1030DA006F7220676C6172652100546F6F206461A2
:1030EA00726B2000746F207365652100416972203C
:1030FA00746F6F20006472792100486172642074D1
:10310A006F200062726561746821004E6F207761DA
:10311A00726E696E67732100416C6C207761726E02
:10312A00696E677300646973706C61796564210004
:10313A00596561722073656C6563746564004375D3
:10314A007272656E743A20004D6F6E7468207365F2
:10315A006C6563746564004461792073656C6563AA
:10316A0074656400486F75722073656C6563746575
:10317A0064004D696E7574652073656C656374656A
:10318A0064005365636F6E642073656C6563746570
:10319A0064005965617220696E6372656173656462
:1031AA000057726F6E6720696E70757421004D6FDB
:1031BA006E746820696E6372656173656400446148
:1031CA007920696E6372656173656400486F757210
:1031DA0020696E63726561736564004D696E75740A
:1031EA006520696E63726561736564005365636F18
:1031FA006E6420696E637265617365640057726FED
:10320A006E672074696D6520706172616D00596521
:10321A00617220646563726561736564004D6F6EE7
:10322A0074682064656372656173656400446179DA
:10323A002064656372656173656400486F75722006
:10324A00646563726561736564004D696E75746562
:10325A0020646563726561736564005365636F6EAC
:10326A0064206465637265617365640054696D65A1
:10327A00206E6F742073657421002D003A00546922
:08328A006D65207365742100DD
:00000001FF
